{"abi":[{"type":"constructor","inputs":[{"name":"_projectTax","type":"uint256","internalType":"uint256"}],"stateMutability":"nonpayable"},{"type":"function","name":"backProject","inputs":[{"name":"id","type":"uint256","internalType":"uint256"}],"outputs":[{"name":"","type":"bool","internalType":"bool"}],"stateMutability":"payable"},{"type":"function","name":"balance","inputs":[],"outputs":[{"name":"","type":"uint256","internalType":"uint256"}],"stateMutability":"view"},{"type":"function","name":"changeTax","inputs":[{"name":"_taxPct","type":"uint256","internalType":"uint256"}],"outputs":[],"stateMutability":"nonpayable"},{"type":"function","name":"createProject","inputs":[{"name":"title","type":"string","internalType":"string"},{"name":"description","type":"string","internalType":"string"},{"name":"imageURL","type":"string","internalType":"string"},{"name":"cost","type":"uint256","internalType":"uint256"},{"name":"expiresAt","type":"uint256","internalType":"uint256"}],"outputs":[{"name":"","type":"bool","internalType":"bool"}],"stateMutability":"nonpayable"},{"type":"function","name":"deleteProject","inputs":[{"name":"id","type":"uint256","internalType":"uint256"}],"outputs":[{"name":"","type":"bool","internalType":"bool"}],"stateMutability":"nonpayable"},{"type":"function","name":"getBackers","inputs":[{"name":"id","type":"uint256","internalType":"uint256"}],"outputs":[{"name":"","type":"tuple[]","internalType":"struct Genesis.backerStruct[]","components":[{"name":"owner","type":"address","internalType":"address"},{"name":"contribution","type":"uint256","internalType":"uint256"},{"name":"timestamp","type":"uint256","internalType":"uint256"},{"name":"refunded","type":"bool","internalType":"bool"}]}],"stateMutability":"view"},{"type":"function","name":"getProject","inputs":[{"name":"id","type":"uint256","internalType":"uint256"}],"outputs":[{"name":"","type":"tuple","internalType":"struct Genesis.projectStruct","components":[{"name":"id","type":"uint256","internalType":"uint256"},{"name":"owner","type":"address","internalType":"address"},{"name":"title","type":"string","internalType":"string"},{"name":"description","type":"string","internalType":"string"},{"name":"imageURL","type":"string","internalType":"string"},{"name":"cost","type":"uint256","internalType":"uint256"},{"name":"raised","type":"uint256","internalType":"uint256"},{"name":"timestamp","type":"uint256","internalType":"uint256"},{"name":"expiresAt","type":"uint256","internalType":"uint256"},{"name":"backers","type":"uint256","internalType":"uint256"},{"name":"status","type":"uint8","internalType":"enum Genesis.statusEnum"}]}],"stateMutability":"view"},{"type":"function","name":"getProjects","inputs":[],"outputs":[{"name":"","type":"tuple[]","internalType":"struct Genesis.projectStruct[]","components":[{"name":"id","type":"uint256","internalType":"uint256"},{"name":"owner","type":"address","internalType":"address"},{"name":"title","type":"string","internalType":"string"},{"name":"description","type":"string","internalType":"string"},{"name":"imageURL","type":"string","internalType":"string"},{"name":"cost","type":"uint256","internalType":"uint256"},{"name":"raised","type":"uint256","internalType":"uint256"},{"name":"timestamp","type":"uint256","internalType":"uint256"},{"name":"expiresAt","type":"uint256","internalType":"uint256"},{"name":"backers","type":"uint256","internalType":"uint256"},{"name":"status","type":"uint8","internalType":"enum Genesis.statusEnum"}]}],"stateMutability":"view"},{"type":"function","name":"owner","inputs":[],"outputs":[{"name":"","type":"address","internalType":"address"}],"stateMutability":"view"},{"type":"function","name":"payOutProject","inputs":[{"name":"id","type":"uint256","internalType":"uint256"}],"outputs":[{"name":"","type":"bool","internalType":"bool"}],"stateMutability":"nonpayable"},{"type":"function","name":"projectCount","inputs":[],"outputs":[{"name":"","type":"uint256","internalType":"uint256"}],"stateMutability":"view"},{"type":"function","name":"projectExist","inputs":[{"name":"","type":"uint256","internalType":"uint256"}],"outputs":[{"name":"","type":"bool","internalType":"bool"}],"stateMutability":"view"},{"type":"function","name":"projectTax","inputs":[],"outputs":[{"name":"","type":"uint256","internalType":"uint256"}],"stateMutability":"view"},{"type":"function","name":"requestRefund","inputs":[{"name":"id","type":"uint256","internalType":"uint256"}],"outputs":[{"name":"","type":"bool","internalType":"bool"}],"stateMutability":"nonpayable"},{"type":"function","name":"stats","inputs":[],"outputs":[{"name":"totalProjects","type":"uint256","internalType":"uint256"},{"name":"totalBacking","type":"uint256","internalType":"uint256"},{"name":"totalDonations","type":"uint256","internalType":"uint256"}],"stateMutability":"view"},{"type":"function","name":"updateProject","inputs":[{"name":"id","type":"uint256","internalType":"uint256"},{"name":"title","type":"string","internalType":"string"},{"name":"description","type":"string","internalType":"string"},{"name":"imageURL","type":"string","internalType":"string"},{"name":"expiresAt","type":"uint256","internalType":"uint256"}],"outputs":[{"name":"","type":"bool","internalType":"bool"}],"stateMutability":"nonpayable"},{"type":"event","name":"Action","inputs":[{"name":"id","type":"uint256","indexed":false,"internalType":"uint256"},{"name":"actionType","type":"string","indexed":false,"internalType":"string"},{"name":"executor","type":"address","indexed":true,"internalType":"address"},{"name":"timestamp","type":"uint256","indexed":false,"internalType":"uint256"}],"anonymous":false}],"bytecode":{"object":"0x6080604052348015600e575f5ffd5b5060405161372a38038061372a8339818101604052810190602e919060ab565b335f5f6101000a81548173ffffffffffffffffffffffffffffffffffffffff021916908373ffffffffffffffffffffffffffffffffffffffff160217905550806001819055505060d1565b5f5ffd5b5f819050919050565b608d81607d565b81146096575f5ffd5b50565b5f8151905060a5816086565b92915050565b5f6020828403121560bd5760bc6079565b5b5f60c8848285016099565b91505092915050565b61364c806100de5f395ff3fe6080604052600436106100f2575f3560e01c8063a4b2409e11610089578063d24cd3ec11610058578063d24cd3ec14610370578063d80528ae1461039a578063dcc60128146103c6578063f0f3f2c8146103f0576100f2565b8063a4b2409e14610292578063b531dcba146102ce578063b69ef8a81461030a578063c9168b7214610334576100f2565b80638593054b116100c55780638593054b146101c05780638da5cb5b146101fc5780639a3fa8c7146102265780639f39a19414610262576100f2565b8063056c29ee146100f657806336fbad26146101325780633e45c8af1461015c5780634cd0cb2814610184575b5f5ffd5b348015610101575f5ffd5b5061011c6004803603810190610117919061226f565b61042c565b6040516101299190612354565b60405180910390f35b34801561013d575f5ffd5b506101466108ef565b604051610153919061237c565b60405180910390f35b348015610167575f5ffd5b50610182600480360381019061017d9190612395565b6108f5565b005b34801561018f575f5ffd5b506101aa60048036038101906101a59190612395565b61098d565b6040516101b79190612354565b60405180910390f35b3480156101cb575f5ffd5b506101e660048036038101906101e19190612395565b610b80565b6040516101f39190612354565b60405180910390f35b348015610207575f5ffd5b50610210610b9d565b60405161021d91906123ff565b60405180910390f35b348015610231575f5ffd5b5061024c60048036038101906102479190612418565b610bc1565b6040516102599190612354565b60405180910390f35b61027c60048036038101906102779190612395565b610e53565b6040516102899190612354565b60405180910390f35b34801561029d575f5ffd5b506102b860048036038101906102b39190612395565b6112e1565b6040516102c59190612354565b60405180910390f35b3480156102d9575f5ffd5b506102f460048036038101906102ef9190612395565b611435565b6040516103019190612354565b60405180910390f35b348015610315575f5ffd5b5061031e6115e4565b60405161032b919061237c565b60405180910390f35b34801561033f575f5ffd5b5061035a60048036038101906103559190612395565b6115ea565b604051610367919061260b565b60405180910390f35b34801561037b575f5ffd5b506103846116d9565b604051610391919061237c565b60405180910390f35b3480156103a5575f5ffd5b506103ae6116df565b6040516103bd9392919061262b565b60405180910390f35b3480156103d1575f5ffd5b506103da6116f6565b6040516103e791906128e8565b60405180910390f35b3480156103fb575f5ffd5b5061041660048036038101906104119190612395565b6119cd565b6040516104239190612a02565b60405180910390f35b5f5f865111610470576040517f08c379a000000000000000000000000000000000000000000000000000000000815260040161046790612a7c565b60405180910390fd5b5f8551116104b3576040517f08c379a00000000000000000000000000000000000000000000000000000000081526004016104aa90612ae4565b60405180910390fd5b5f8451116104f6576040517f08c379a00000000000000000000000000000000000000000000000000000000081526004016104ed90612b4c565b60405180910390fd5b5f8311610538576040517f08c379a000000000000000000000000000000000000000000000000000000000815260040161052f90612bb4565b60405180910390fd5b610540612075565b600254815f01818152505033816020019073ffffffffffffffffffffffffffffffffffffffff16908173ffffffffffffffffffffffffffffffffffffffff1681525050868160400181905250858160600181905250848160800181905250838160a0018181525050428160e00181815250508281610100018181525050600781908060018154018082558091505060019003905f5260205f2090600b02015f909190919091505f820151815f01556020820151816001015f6101000a81548173ffffffffffffffffffffffffffffffffffffffff021916908373ffffffffffffffffffffffffffffffffffffffff16021790555060408201518160020190816106499190612dcf565b50606082015181600301908161065f9190612dcf565b5060808201518160040190816106759190612dcf565b5060a0820151816005015560c0820151816006015560e082015181600701556101008201518160080155610120820151816009015561014082015181600a015f6101000a81548160ff021916908360048111156106d5576106d46126e9565b5b021790555050506001600a5f60025481526020019081526020015f205f6101000a81548160ff02191690831515021790555060085f3373ffffffffffffffffffffffffffffffffffffffff1673ffffffffffffffffffffffffffffffffffffffff1681526020019081526020015f2081908060018154018082558091505060019003905f5260205f2090600b02015f909190919091505f820151815f01556020820151816001015f6101000a81548173ffffffffffffffffffffffffffffffffffffffff021916908373ffffffffffffffffffffffffffffffffffffffff16021790555060408201518160020190816107ce9190612dcf565b5060608201518160030190816107e49190612dcf565b5060808201518160040190816107fa9190612dcf565b5060a0820151816005015560c0820151816006015560e082015181600701556101008201518160080155610120820151816009015561014082015181600a015f6101000a81548160ff0219169083600481111561085a576108596126e9565b5b02179055505050600160045f015f8282546108759190612ecb565b925050819055503373ffffffffffffffffffffffffffffffffffffffff167faee8e5d3bbb2f71a951b5632cee20f7ac487b9f8ab4f66a236f7694b13af7c6a60025f8154809291906108c690612efe565b91905055426040516108d9929190612f8f565b60405180910390a2600191505095945050505050565b60025481565b5f5f9054906101000a900473ffffffffffffffffffffffffffffffffffffffff1673ffffffffffffffffffffffffffffffffffffffff163373ffffffffffffffffffffffffffffffffffffffff1614610983576040517f08c379a000000000000000000000000000000000000000000000000000000000815260040161097a90613013565b60405180910390fd5b8060018190555050565b5f5f60048111156109a1576109a06126e9565b5b600783815481106109b5576109b4613031565b5b905f5260205f2090600b0201600a015f9054906101000a900460ff1660048111156109e3576109e26126e9565b5b14610a23576040517f08c379a0000000000000000000000000000000000000000000000000000000008152600401610a1a906130a8565b60405180910390fd5b60078281548110610a3757610a36613031565b5b905f5260205f2090600b02016001015f9054906101000a900473ffffffffffffffffffffffffffffffffffffffff1673ffffffffffffffffffffffffffffffffffffffff163373ffffffffffffffffffffffffffffffffffffffff1614610ad3576040517f08c379a0000000000000000000000000000000000000000000000000000000008152600401610aca90613110565b60405180910390fd5b600360078381548110610ae957610ae8613031565b5b905f5260205f2090600b0201600a015f6101000a81548160ff02191690836004811115610b1957610b186126e9565b5b0217905550610b2782611cdf565b3373ffffffffffffffffffffffffffffffffffffffff167faee8e5d3bbb2f71a951b5632cee20f7ac487b9f8ab4f66a236f7694b13af7c6a8342604051610b6f929190613178565b60405180910390a260019050919050565b600a602052805f5260405f205f915054906101000a900460ff1681565b5f5f9054906101000a900473ffffffffffffffffffffffffffffffffffffffff1681565b5f60078681548110610bd657610bd5613031565b5b905f5260205f2090600b02016001015f9054906101000a900473ffffffffffffffffffffffffffffffffffffffff1673ffffffffffffffffffffffffffffffffffffffff163373ffffffffffffffffffffffffffffffffffffffff1614610c72576040517f08c379a0000000000000000000000000000000000000000000000000000000008152600401610c6990613110565b60405180910390fd5b5f855111610cb5576040517f08c379a0000000000000000000000000000000000000000000000000000000008152600401610cac90612a7c565b60405180910390fd5b5f845111610cf8576040517f08c379a0000000000000000000000000000000000000000000000000000000008152600401610cef90612ae4565b60405180910390fd5b5f835111610d3b576040517f08c379a0000000000000000000000000000000000000000000000000000000008152600401610d3290612b4c565b60405180910390fd5b8460078781548110610d5057610d4f613031565b5b905f5260205f2090600b02016002019081610d6b9190612dcf565b508360078781548110610d8157610d80613031565b5b905f5260205f2090600b02016003019081610d9c9190612dcf565b508260078781548110610db257610db1613031565b5b905f5260205f2090600b02016004019081610dcd9190612dcf565b508160078781548110610de357610de2613031565b5b905f5260205f2090600b0201600801819055503373ffffffffffffffffffffffffffffffffffffffff167faee8e5d3bbb2f71a951b5632cee20f7ac487b9f8ab4f66a236f7694b13af7c6a8742604051610e3e9291906131fc565b60405180910390a26001905095945050505050565b5f5f3411610e96576040517f08c379a0000000000000000000000000000000000000000000000000000000008152600401610e8d90613280565b60405180910390fd5b600a5f8381526020019081526020015f205f9054906101000a900460ff16610ef3576040517f08c379a0000000000000000000000000000000000000000000000000000000008152600401610eea906132e8565b60405180910390fd5b5f6004811115610f0657610f056126e9565b5b60078381548110610f1a57610f19613031565b5b905f5260205f2090600b0201600a015f9054906101000a900460ff166004811115610f4857610f476126e9565b5b14610f88576040517f08c379a0000000000000000000000000000000000000000000000000000000008152600401610f7f906130a8565b60405180910390fd5b600160046001015f828254610f9d9190612ecb565b925050819055503460046002015f828254610fb89190612ecb565b925050819055503460078381548110610fd457610fd3613031565b5b905f5260205f2090600b02016006015f828254610ff19190612ecb565b9250508190555060016007838154811061100e5761100d613031565b5b905f5260205f2090600b02016009015f82825461102b9190612ecb565b9250508190555060095f8381526020019081526020015f2060405180608001604052803373ffffffffffffffffffffffffffffffffffffffff1681526020013481526020014281526020015f1515815250908060018154018082558091505060019003905f5260205f2090600402015f909190919091505f820151815f015f6101000a81548173ffffffffffffffffffffffffffffffffffffffff021916908373ffffffffffffffffffffffffffffffffffffffff16021790555060208201518160010155604082015181600201556060820151816003015f6101000a81548160ff02191690831515021790555050503373ffffffffffffffffffffffffffffffffffffffff167faee8e5d3bbb2f71a951b5632cee20f7ac487b9f8ab4f66a236f7694b13af7c6a8342604051611163929190613350565b60405180910390a26007828154811061117f5761117e613031565b5b905f5260205f2090600b020160050154600783815481106111a3576111a2613031565b5b905f5260205f2090600b02016006015410611250576001600783815481106111ce576111cd613031565b5b905f5260205f2090600b0201600a015f6101000a81548160ff021916908360048111156111fe576111fd6126e9565b5b02179055506007828154811061121757611216613031565b5b905f5260205f2090600b02016006015460035f8282546112379190612ecb565b9250508190555061124782611e5f565b600190506112dc565b6007828154811061126457611263613031565b5b905f5260205f2090600b02016008015442106112d7576002600783815481106112905761128f613031565b5b905f5260205f2090600b0201600a015f6101000a81548160ff021916908360048111156112c0576112bf6126e9565b5b02179055506112ce82611cdf565b600190506112dc565b600190505b919050565b5f600260048111156112f6576112f56126e9565b5b6007838154811061130a57611309613031565b5b905f5260205f2090600b0201600a015f9054906101000a900460ff166004811115611338576113376126e9565b5b141580611399575060036004811115611354576113536126e9565b5b6007838154811061136857611367613031565b5b905f5260205f2090600b0201600a015f9054906101000a900460ff166004811115611396576113956126e9565b5b14155b6113d8576040517f08c379a00000000000000000000000000000000000000000000000000000000081526004016113cf906133fa565b60405180910390fd5b6002600783815481106113ee576113ed613031565b5b905f5260205f2090600b0201600a015f6101000a81548160ff0219169083600481111561141e5761141d6126e9565b5b021790555061142c82611cdf565b60019050919050565b5f6001600481111561144a576114496126e9565b5b6007838154811061145e5761145d613031565b5b905f5260205f2090600b0201600a015f9054906101000a900460ff16600481111561148c5761148b6126e9565b5b146114cc576040517f08c379a00000000000000000000000000000000000000000000000000000000081526004016114c390613462565b60405180910390fd5b600782815481106114e0576114df613031565b5b905f5260205f2090600b02016001015f9054906101000a900473ffffffffffffffffffffffffffffffffffffffff1673ffffffffffffffffffffffffffffffffffffffff163373ffffffffffffffffffffffffffffffffffffffff16148061159357505f5f9054906101000a900473ffffffffffffffffffffffffffffffffffffffff1673ffffffffffffffffffffffffffffffffffffffff163373ffffffffffffffffffffffffffffffffffffffff16145b6115d2576040517f08c379a00000000000000000000000000000000000000000000000000000000081526004016115c990613110565b60405180910390fd5b6115db82611e5f565b60019050919050565b60035481565b606060095f8381526020019081526020015f20805480602002602001604051908101604052809291908181526020015f905b828210156116ce578382905f5260205f2090600402016040518060800160405290815f82015f9054906101000a900473ffffffffffffffffffffffffffffffffffffffff1673ffffffffffffffffffffffffffffffffffffffff1673ffffffffffffffffffffffffffffffffffffffff1681526020016001820154815260200160028201548152602001600382015f9054906101000a900460ff1615151515815250508152602001906001019061161c565b505050509050919050565b60015481565b6004805f0154908060010154908060020154905083565b60606007805480602002602001604051908101604052809291908181526020015f905b828210156119c4578382905f5260205f2090600b0201604051806101600160405290815f8201548152602001600182015f9054906101000a900473ffffffffffffffffffffffffffffffffffffffff1673ffffffffffffffffffffffffffffffffffffffff1673ffffffffffffffffffffffffffffffffffffffff1681526020016002820180546117a990612bff565b80601f01602080910402602001604051908101604052809291908181526020018280546117d590612bff565b80156118205780601f106117f757610100808354040283529160200191611820565b820191905f5260205f20905b81548152906001019060200180831161180357829003601f168201915b5050505050815260200160038201805461183990612bff565b80601f016020809104026020016040519081016040528092919081815260200182805461186590612bff565b80156118b05780601f10611887576101008083540402835291602001916118b0565b820191905f5260205f20905b81548152906001019060200180831161189357829003601f168201915b505050505081526020016004820180546118c990612bff565b80601f01602080910402602001604051908101604052809291908181526020018280546118f590612bff565b80156119405780601f1061191757610100808354040283529160200191611940565b820191905f5260205f20905b81548152906001019060200180831161192357829003601f168201915b505050505081526020016005820154815260200160068201548152602001600782015481526020016008820154815260200160098201548152602001600a82015f9054906101000a900460ff16600481111561199f5761199e6126e9565b5b60048111156119b1576119b06126e9565b5b8152505081526020019060010190611719565b50505050905090565b6119d5612075565b600a5f8381526020019081526020015f205f9054906101000a900460ff16611a32576040517f08c379a0000000000000000000000000000000000000000000000000000000008152600401611a29906132e8565b60405180910390fd5b60078281548110611a4657611a45613031565b5b905f5260205f2090600b0201604051806101600160405290815f8201548152602001600182015f9054906101000a900473ffffffffffffffffffffffffffffffffffffffff1673ffffffffffffffffffffffffffffffffffffffff1673ffffffffffffffffffffffffffffffffffffffff168152602001600282018054611acc90612bff565b80601f0160208091040260200160405190810160405280929190818152602001828054611af890612bff565b8015611b435780601f10611b1a57610100808354040283529160200191611b43565b820191905f5260205f20905b815481529060010190602001808311611b2657829003601f168201915b50505050508152602001600382018054611b5c90612bff565b80601f0160208091040260200160405190810160405280929190818152602001828054611b8890612bff565b8015611bd35780601f10611baa57610100808354040283529160200191611bd3565b820191905f5260205f20905b815481529060010190602001808311611bb657829003601f168201915b50505050508152602001600482018054611bec90612bff565b80601f0160208091040260200160405190810160405280929190818152602001828054611c1890612bff565b8015611c635780601f10611c3a57610100808354040283529160200191611c63565b820191905f5260205f20905b815481529060010190602001808311611c4657829003601f168201915b505050505081526020016005820154815260200160068201548152602001600782015481526020016008820154815260200160098201548152602001600a82015f9054906101000a900460ff166004811115611cc257611cc16126e9565b5b6004811115611cd457611cd36126e9565b5b815250509050919050565b5f5f90505b60095f8381526020019081526020015f2080549050811015611e5b575f60095f8481526020019081526020015f208281548110611d2457611d23613031565b5b905f5260205f2090600402015f015f9054906101000a900473ffffffffffffffffffffffffffffffffffffffff1690505f60095f8581526020019081526020015f208381548110611d7857611d77613031565b5b905f5260205f209060040201600101549050600160095f8681526020019081526020015f208481548110611daf57611dae613031565b5b905f5260205f2090600402016003015f6101000a81548160ff0219169083151502179055504260095f8681526020019081526020015f208481548110611df857611df7613031565b5b905f5260205f20906004020160020181905550611e158282611fff565b600160046001015f828254611e2a9190613480565b925050819055508060046002015f828254611e459190613480565b9250508190555050508080600101915050611ce4565b5050565b5f60078281548110611e7457611e73613031565b5b905f5260205f2090600b02016006015490505f606460015483611e9791906134b3565b611ea19190613521565b9050600460078481548110611eb957611eb8613031565b5b905f5260205f2090600b0201600a015f6101000a81548160ff02191690836004811115611ee957611ee86126e9565b5b0217905550611f4560078481548110611f0557611f04613031565b5b905f5260205f2090600b02016001015f9054906101000a900473ffffffffffffffffffffffffffffffffffffffff168284611f409190613480565b611fff565b611f6f5f5f9054906101000a900473ffffffffffffffffffffffffffffffffffffffff1682611fff565b60078381548110611f8357611f82613031565b5b905f5260205f2090600b02016006015460035f828254611fa39190613480565b925050819055503373ffffffffffffffffffffffffffffffffffffffff167faee8e5d3bbb2f71a951b5632cee20f7ac487b9f8ab4f66a236f7694b13af7c6a8442604051611ff292919061359b565b60405180910390a2505050565b5f8273ffffffffffffffffffffffffffffffffffffffff168260405161202490613602565b5f6040518083038185875af1925050503d805f811461205e576040519150601f19603f3d011682016040523d82523d5f602084013e612063565b606091505b5050905080612070575f5ffd5b505050565b6040518061016001604052805f81526020015f73ffffffffffffffffffffffffffffffffffffffff1681526020016060815260200160608152602001606081526020015f81526020015f81526020015f81526020015f81526020015f81526020015f60048111156120e9576120e86126e9565b5b81525090565b5f604051905090565b5f5ffd5b5f5ffd5b5f5ffd5b5f5ffd5b5f601f19601f8301169050919050565b7f4e487b71000000000000000000000000000000000000000000000000000000005f52604160045260245ffd5b61214e82612108565b810181811067ffffffffffffffff8211171561216d5761216c612118565b5b80604052505050565b5f61217f6120ef565b905061218b8282612145565b919050565b5f67ffffffffffffffff8211156121aa576121a9612118565b5b6121b382612108565b9050602081019050919050565b828183375f83830152505050565b5f6121e06121db84612190565b612176565b9050828152602081018484840111156121fc576121fb612104565b5b6122078482856121c0565b509392505050565b5f82601f83011261222357612222612100565b5b81356122338482602086016121ce565b91505092915050565b5f819050919050565b61224e8161223c565b8114612258575f5ffd5b50565b5f8135905061226981612245565b92915050565b5f5f5f5f5f60a08688031215612288576122876120f8565b5b5f86013567ffffffffffffffff8111156122a5576122a46120fc565b5b6122b18882890161220f565b955050602086013567ffffffffffffffff8111156122d2576122d16120fc565b5b6122de8882890161220f565b945050604086013567ffffffffffffffff8111156122ff576122fe6120fc565b5b61230b8882890161220f565b935050606061231c8882890161225b565b925050608061232d8882890161225b565b9150509295509295909350565b5f8115159050919050565b61234e8161233a565b82525050565b5f6020820190506123675f830184612345565b92915050565b6123768161223c565b82525050565b5f60208201905061238f5f83018461236d565b92915050565b5f602082840312156123aa576123a96120f8565b5b5f6123b78482850161225b565b91505092915050565b5f73ffffffffffffffffffffffffffffffffffffffff82169050919050565b5f6123e9826123c0565b9050919050565b6123f9816123df565b82525050565b5f6020820190506124125f8301846123f0565b92915050565b5f5f5f5f5f60a08688031215612431576124306120f8565b5b5f61243e8882890161225b565b955050602086013567ffffffffffffffff81111561245f5761245e6120fc565b5b61246b8882890161220f565b945050604086013567ffffffffffffffff81111561248c5761248b6120fc565b5b6124988882890161220f565b935050606086013567ffffffffffffffff8111156124b9576124b86120fc565b5b6124c58882890161220f565b92505060806124d68882890161225b565b9150509295509295909350565b5f81519050919050565b5f82825260208201905092915050565b5f819050602082019050919050565b612515816123df565b82525050565b6125248161223c565b82525050565b6125338161233a565b82525050565b608082015f82015161254d5f85018261250c565b506020820151612560602085018261251b565b506040820151612573604085018261251b565b506060820151612586606085018261252a565b50505050565b5f6125978383612539565b60808301905092915050565b5f602082019050919050565b5f6125b9826124e3565b6125c381856124ed565b93506125ce836124fd565b805f5b838110156125fe5781516125e5888261258c565b97506125f0836125a3565b9250506001810190506125d1565b5085935050505092915050565b5f6020820190508181035f83015261262381846125af565b905092915050565b5f60608201905061263e5f83018661236d565b61264b602083018561236d565b612658604083018461236d565b949350505050565b5f81519050919050565b5f82825260208201905092915050565b5f819050602082019050919050565b5f81519050919050565b5f82825260208201905092915050565b8281835e5f83830152505050565b5f6126bb82612689565b6126c58185612693565b93506126d58185602086016126a3565b6126de81612108565b840191505092915050565b7f4e487b71000000000000000000000000000000000000000000000000000000005f52602160045260245ffd5b60058110612727576127266126e9565b5b50565b5f81905061273782612716565b919050565b5f6127468261272a565b9050919050565b6127568161273c565b82525050565b5f61016083015f8301516127725f86018261251b565b506020830151612785602086018261250c565b506040830151848203604086015261279d82826126b1565b915050606083015184820360608601526127b782826126b1565b915050608083015184820360808601526127d182826126b1565b91505060a08301516127e660a086018261251b565b5060c08301516127f960c086018261251b565b5060e083015161280c60e086018261251b565b5061010083015161282161010086018261251b565b5061012083015161283661012086018261251b565b5061014083015161284b61014086018261274d565b508091505092915050565b5f612861838361275c565b905092915050565b5f602082019050919050565b5f61287f82612660565b612889818561266a565b93508360208202850161289b8561267a565b805f5b858110156128d657848403895281516128b78582612856565b94506128c283612869565b925060208a0199505060018101905061289e565b50829750879550505050505092915050565b5f6020820190508181035f8301526129008184612875565b905092915050565b5f61016083015f83015161291e5f86018261251b565b506020830151612931602086018261250c565b506040830151848203604086015261294982826126b1565b9150506060830151848203606086015261296382826126b1565b9150506080830151848203608086015261297d82826126b1565b91505060a083015161299260a086018261251b565b5060c08301516129a560c086018261251b565b5060e08301516129b860e086018261251b565b506101008301516129cd61010086018261251b565b506101208301516129e261012086018261251b565b506101408301516129f761014086018261274d565b508091505092915050565b5f6020820190508181035f830152612a1a8184612908565b905092915050565b5f82825260208201905092915050565b7f5469746c652063616e6e6f7420626520656d70747900000000000000000000005f82015250565b5f612a66601583612a22565b9150612a7182612a32565b602082019050919050565b5f6020820190508181035f830152612a9381612a5a565b9050919050565b7f4465736372697074696f6e2063616e6e6f7420626520656d70747900000000005f82015250565b5f612ace601b83612a22565b9150612ad982612a9a565b602082019050919050565b5f6020820190508181035f830152612afb81612ac2565b9050919050565b7f496d61676555524c2063616e6e6f7420626520656d70747900000000000000005f82015250565b5f612b36601883612a22565b9150612b4182612b02565b602082019050919050565b5f6020820190508181035f830152612b6381612b2a565b9050919050565b7f436f73742063616e6e6f74206265207a65726f000000000000000000000000005f82015250565b5f612b9e601383612a22565b9150612ba982612b6a565b602082019050919050565b5f6020820190508181035f830152612bcb81612b92565b9050919050565b7f4e487b71000000000000000000000000000000000000000000000000000000005f52602260045260245ffd5b5f6002820490506001821680612c1657607f821691505b602082108103612c2957612c28612bd2565b5b50919050565b5f819050815f5260205f209050919050565b5f6020601f8301049050919050565b5f82821b905092915050565b5f60088302612c8b7fffffffffffffffffffffffffffffffffffffffffffffffffffffffffffffffff82612c50565b612c958683612c50565b95508019841693508086168417925050509392505050565b5f819050919050565b5f612cd0612ccb612cc68461223c565b612cad565b61223c565b9050919050565b5f819050919050565b612ce983612cb6565b612cfd612cf582612cd7565b848454612c5c565b825550505050565b5f5f905090565b612d14612d05565b612d1f818484612ce0565b505050565b5b81811015612d4257612d375f82612d0c565b600181019050612d25565b5050565b601f821115612d8757612d5881612c2f565b612d6184612c41565b81016020851015612d70578190505b612d84612d7c85612c41565b830182612d24565b50505b505050565b5f82821c905092915050565b5f612da75f1984600802612d8c565b1980831691505092915050565b5f612dbf8383612d98565b9150826002028217905092915050565b612dd882612689565b67ffffffffffffffff811115612df157612df0612118565b5b612dfb8254612bff565b612e06828285612d46565b5f60209050601f831160018114612e37575f8415612e25578287015190505b612e2f8582612db4565b865550612e96565b601f198416612e4586612c2f565b5f5b82811015612e6c57848901518255600182019150602085019450602081019050612e47565b86831015612e895784890151612e85601f891682612d98565b8355505b6001600288020188555050505b505050505050565b7f4e487b71000000000000000000000000000000000000000000000000000000005f52601160045260245ffd5b5f612ed58261223c565b9150612ee08361223c565b9250828201905080821115612ef857612ef7612e9e565b5b92915050565b5f612f088261223c565b91507fffffffffffffffffffffffffffffffffffffffffffffffffffffffffffffffff8203612f3a57612f39612e9e565b5b600182019050919050565b7f50524f4a454354204352454154454400000000000000000000000000000000005f82015250565b5f612f79600f83612a22565b9150612f8482612f45565b602082019050919050565b5f606082019050612fa25f83018561236d565b8181036020830152612fb381612f6d565b9050612fc2604083018461236d565b9392505050565b7f4f776e6572207265736572766564206f6e6c79000000000000000000000000005f82015250565b5f612ffd601383612a22565b915061300882612fc9565b602082019050919050565b5f6020820190508181035f83015261302a81612ff1565b9050919050565b7f4e487b71000000000000000000000000000000000000000000000000000000005f52603260045260245ffd5b7f50726f6a656374206e6f206c6f6e676572206f70656e656400000000000000005f82015250565b5f613092601883612a22565b915061309d8261305e565b602082019050919050565b5f6020820190508181035f8301526130bf81613086565b9050919050565b7f556e617574686f72697a656420456e74697479000000000000000000000000005f82015250565b5f6130fa601383612a22565b9150613105826130c6565b602082019050919050565b5f6020820190508181035f830152613127816130ee565b9050919050565b7f50524f4a4543542044454c4554454400000000000000000000000000000000005f82015250565b5f613162600f83612a22565b915061316d8261312e565b602082019050919050565b5f60608201905061318b5f83018561236d565b818103602083015261319c81613156565b90506131ab604083018461236d565b9392505050565b7f50524f4a454354205550444154454400000000000000000000000000000000005f82015250565b5f6131e6600f83612a22565b91506131f1826131b2565b602082019050919050565b5f60608201905061320f5f83018561236d565b8181036020830152613220816131da565b905061322f604083018461236d565b9392505050565b7f4574686572206d7573742062652067726561746572207468616e207a65726f005f82015250565b5f61326a601f83612a22565b915061327582613236565b602082019050919050565b5f6020820190508181035f8301526132978161325e565b9050919050565b7f50726f6a656374206e6f7420666f756e640000000000000000000000000000005f82015250565b5f6132d2601183612a22565b91506132dd8261329e565b602082019050919050565b5f6020820190508181035f8301526132ff816132c6565b9050919050565b7f50524f4a454354204241434b45440000000000000000000000000000000000005f82015250565b5f61333a600e83612a22565b915061334582613306565b602082019050919050565b5f6060820190506133635f83018561236d565b81810360208301526133748161332e565b9050613383604083018461236d565b9392505050565b7f50726f6a656374206e6f74206d61726b656420617320726576657274206f72205f8201527f64656c6574650000000000000000000000000000000000000000000000000000602082015250565b5f6133e4602683612a22565b91506133ef8261338a565b604082019050919050565b5f6020820190508181035f830152613411816133d8565b9050919050565b7f50726f6a656374206e6f7420415050524f5645440000000000000000000000005f82015250565b5f61344c601483612a22565b915061345782613418565b602082019050919050565b5f6020820190508181035f83015261347981613440565b9050919050565b5f61348a8261223c565b91506134958361223c565b92508282039050818111156134ad576134ac612e9e565b5b92915050565b5f6134bd8261223c565b91506134c88361223c565b92508282026134d68161223c565b915082820484148315176134ed576134ec612e9e565b5b5092915050565b7f4e487b71000000000000000000000000000000000000000000000000000000005f52601260045260245ffd5b5f61352b8261223c565b91506135368361223c565b925082613546576135456134f4565b5b828204905092915050565b7f50524f4a4543542050414944204f5554000000000000000000000000000000005f82015250565b5f613585601083612a22565b915061359082613551565b602082019050919050565b5f6060820190506135ae5f83018561236d565b81810360208301526135bf81613579565b90506135ce604083018461236d565b9392505050565b5f81905092915050565b50565b5f6135ed5f836135d5565b91506135f8826135df565b5f82019050919050565b5f61360c826135e2565b915081905091905056fea2646970667358221220bbbb5cb6d2f1a57e946ce2cb416a23c96e745bc9074c08907927f5d61660327b64736f6c634300081c0033","linkReferences":{}},"methodIdentifiers":{"backProject(uint256)":"9f39a194","balance()":"b69ef8a8","changeTax(uint256)":"3e45c8af","createProject(string,string,string,uint256,uint256)":"056c29ee","deleteProject(uint256)":"4cd0cb28","getBackers(uint256)":"c9168b72","getProject(uint256)":"f0f3f2c8","getProjects()":"dcc60128","owner()":"8da5cb5b","payOutProject(uint256)":"b531dcba","projectCount()":"36fbad26","projectExist(uint256)":"8593054b","projectTax()":"d24cd3ec","requestRefund(uint256)":"a4b2409e","stats()":"d80528ae","updateProject(uint256,string,string,string,uint256)":"9a3fa8c7"},"id":0}